{
  "_format": "hh-sol-artifact-1",
  "contractName": "SupplyChain",
  "sourceName": "contracts/Supplychain.sol",
  "abi": [
    {
      "inputs": [],
      "stateMutability": "nonpayable",
      "type": "constructor"
    },
    {
      "anonymous": false,
      "inputs": [
        {
          "indexed": true,
          "internalType": "uint256",
          "name": "batchId",
          "type": "uint256"
        },
        {
          "indexed": false,
          "internalType": "string",
          "name": "name",
          "type": "string"
        }
      ],
      "name": "BatchCreated",
      "type": "event"
    },
    {
      "anonymous": false,
      "inputs": [
        {
          "indexed": true,
          "internalType": "uint256",
          "name": "productId",
          "type": "uint256"
        },
        {
          "indexed": false,
          "internalType": "string",
          "name": "name",
          "type": "string"
        },
        {
          "indexed": false,
          "internalType": "uint256",
          "name": "batchNo",
          "type": "uint256"
        }
      ],
      "name": "ProductAdded",
      "type": "event"
    },
    {
      "anonymous": false,
      "inputs": [
        {
          "indexed": true,
          "internalType": "uint256",
          "name": "productId",
          "type": "uint256"
        },
        {
          "indexed": false,
          "internalType": "enum Stage",
          "name": "newStage",
          "type": "uint8"
        },
        {
          "indexed": false,
          "internalType": "string",
          "name": "remarks",
          "type": "string"
        }
      ],
      "name": "ProductStageUpdated",
      "type": "event"
    },
    {
      "anonymous": false,
      "inputs": [
        {
          "indexed": true,
          "internalType": "address",
          "name": "wallet",
          "type": "address"
        },
        {
          "indexed": false,
          "internalType": "string",
          "name": "name",
          "type": "string"
        },
        {
          "indexed": false,
          "internalType": "enum Role",
          "name": "role",
          "type": "uint8"
        },
        {
          "indexed": false,
          "internalType": "enum UserStatus",
          "name": "status",
          "type": "uint8"
        }
      ],
      "name": "UserAdded",
      "type": "event"
    },
    {
      "anonymous": false,
      "inputs": [
        {
          "indexed": true,
          "internalType": "address",
          "name": "wallet",
          "type": "address"
        },
        {
          "indexed": false,
          "internalType": "enum UserStatus",
          "name": "oldStatus",
          "type": "uint8"
        },
        {
          "indexed": false,
          "internalType": "enum UserStatus",
          "name": "newStatus",
          "type": "uint8"
        }
      ],
      "name": "UserStatusUpdated",
      "type": "event"
    },
    {
      "inputs": [
        {
          "internalType": "string",
          "name": "_name",
          "type": "string"
        },
        {
          "internalType": "string",
          "name": "_productType",
          "type": "string"
        },
        {
          "internalType": "string",
          "name": "_description",
          "type": "string"
        },
        {
          "internalType": "uint256",
          "name": "_batchNo",
          "type": "uint256"
        },
        {
          "internalType": "uint256",
          "name": "_manufacturedDate",
          "type": "uint256"
        },
        {
          "internalType": "uint256",
          "name": "_expiryDate",
          "type": "uint256"
        },
        {
          "internalType": "uint256",
          "name": "_price",
          "type": "uint256"
        }
      ],
      "name": "addProduct",
      "outputs": [],
      "stateMutability": "nonpayable",
      "type": "function"
    },
    {
      "inputs": [
        {
          "internalType": "address",
          "name": "_wallet",
          "type": "address"
        },
        {
          "internalType": "string",
          "name": "_name",
          "type": "string"
        },
        {
          "internalType": "string",
          "name": "_place",
          "type": "string"
        },
        {
          "internalType": "enum Role",
          "name": "_role",
          "type": "uint8"
        }
      ],
      "name": "addUser",
      "outputs": [],
      "stateMutability": "nonpayable",
      "type": "function"
    },
    {
      "inputs": [
        {
          "internalType": "uint256",
          "name": "",
          "type": "uint256"
        }
      ],
      "name": "batches",
      "outputs": [
        {
          "internalType": "string",
          "name": "name",
          "type": "string"
        },
        {
          "internalType": "string",
          "name": "description",
          "type": "string"
        }
      ],
      "stateMutability": "view",
      "type": "function"
    },
    {
      "inputs": [
        {
          "internalType": "string",
          "name": "_name",
          "type": "string"
        },
        {
          "internalType": "string",
          "name": "_description",
          "type": "string"
        }
      ],
      "name": "createBatch",
      "outputs": [],
      "stateMutability": "nonpayable",
      "type": "function"
    },
    {
      "inputs": [],
      "name": "getAllUserList",
      "outputs": [
        {
          "components": [
            {
              "internalType": "address",
              "name": "wallet",
              "type": "address"
            },
            {
              "internalType": "string",
              "name": "name",
              "type": "string"
            },
            {
              "internalType": "string",
              "name": "place",
              "type": "string"
            },
            {
              "internalType": "enum Role",
              "name": "role",
              "type": "uint8"
            },
            {
              "internalType": "enum UserStatus",
              "name": "status",
              "type": "uint8"
            }
          ],
          "internalType": "struct User[]",
          "name": "",
          "type": "tuple[]"
        }
      ],
      "stateMutability": "view",
      "type": "function"
    },
    {
      "inputs": [
        {
          "internalType": "uint256",
          "name": "_productId",
          "type": "uint256"
        }
      ],
      "name": "getProductDetails",
      "outputs": [
        {
          "components": [
            {
              "internalType": "string",
              "name": "name",
              "type": "string"
            },
            {
              "internalType": "uint256",
              "name": "batchNo",
              "type": "uint256"
            },
            {
              "internalType": "enum Stage",
              "name": "stage",
              "type": "uint8"
            },
            {
              "internalType": "string",
              "name": "productType",
              "type": "string"
            },
            {
              "internalType": "string",
              "name": "description",
              "type": "string"
            },
            {
              "internalType": "uint256",
              "name": "manufacturedDate",
              "type": "uint256"
            },
            {
              "internalType": "uint256",
              "name": "expiryDate",
              "type": "uint256"
            },
            {
              "internalType": "uint256",
              "name": "price",
              "type": "uint256"
            }
          ],
          "internalType": "struct Product",
          "name": "product",
          "type": "tuple"
        },
        {
          "components": [
            {
              "internalType": "string",
              "name": "name",
              "type": "string"
            },
            {
              "internalType": "string",
              "name": "description",
              "type": "string"
            }
          ],
          "internalType": "struct Batch",
          "name": "batchDetails",
          "type": "tuple"
        },
        {
          "components": [
            {
              "components": [
                {
                  "internalType": "address",
                  "name": "wallet",
                  "type": "address"
                },
                {
                  "internalType": "string",
                  "name": "name",
                  "type": "string"
                },
                {
                  "internalType": "string",
                  "name": "place",
                  "type": "string"
                },
                {
                  "internalType": "enum Role",
                  "name": "role",
                  "type": "uint8"
                },
                {
                  "internalType": "enum UserStatus",
                  "name": "status",
                  "type": "uint8"
                }
              ],
              "internalType": "struct User",
              "name": "user",
              "type": "tuple"
            },
            {
              "internalType": "enum Stage",
              "name": "stage",
              "type": "uint8"
            },
            {
              "internalType": "uint256",
              "name": "stageCount",
              "type": "uint256"
            },
            {
              "internalType": "uint256",
              "name": "entryTime",
              "type": "uint256"
            },
            {
              "internalType": "uint256",
              "name": "exitTime",
              "type": "uint256"
            },
            {
              "internalType": "string",
              "name": "remark",
              "type": "string"
            }
          ],
          "internalType": "struct StageDetails[]",
          "name": "stageDetails",
          "type": "tuple[]"
        }
      ],
      "stateMutability": "view",
      "type": "function"
    },
    {
      "inputs": [],
      "name": "getProductsByUser",
      "outputs": [
        {
          "components": [
            {
              "internalType": "string",
              "name": "name",
              "type": "string"
            },
            {
              "internalType": "uint256",
              "name": "batchNo",
              "type": "uint256"
            },
            {
              "internalType": "enum Stage",
              "name": "stage",
              "type": "uint8"
            },
            {
              "internalType": "string",
              "name": "productType",
              "type": "string"
            },
            {
              "internalType": "string",
              "name": "description",
              "type": "string"
            },
            {
              "internalType": "uint256",
              "name": "manufacturedDate",
              "type": "uint256"
            },
            {
              "internalType": "uint256",
              "name": "expiryDate",
              "type": "uint256"
            },
            {
              "internalType": "uint256",
              "name": "price",
              "type": "uint256"
            }
          ],
          "internalType": "struct Product[]",
          "name": "",
          "type": "tuple[]"
        }
      ],
      "stateMutability": "view",
      "type": "function"
    },
    {
      "inputs": [
        {
          "internalType": "uint256",
          "name": "_productId",
          "type": "uint256"
        },
        {
          "internalType": "string",
          "name": "_remark",
          "type": "string"
        }
      ],
      "name": "markAsLost",
      "outputs": [],
      "stateMutability": "nonpayable",
      "type": "function"
    },
    {
      "inputs": [],
      "name": "owner",
      "outputs": [
        {
          "internalType": "address",
          "name": "",
          "type": "address"
        }
      ],
      "stateMutability": "view",
      "type": "function"
    },
    {
      "inputs": [
        {
          "internalType": "string",
          "name": "_name",
          "type": "string"
        },
        {
          "internalType": "string",
          "name": "_place",
          "type": "string"
        },
        {
          "internalType": "enum Role",
          "name": "_role",
          "type": "uint8"
        }
      ],
      "name": "registerUser",
      "outputs": [],
      "stateMutability": "nonpayable",
      "type": "function"
    },
    {
      "inputs": [
        {
          "internalType": "uint256",
          "name": "_productId",
          "type": "uint256"
        },
        {
          "internalType": "enum Stage",
          "name": "_newStage",
          "type": "uint8"
        },
        {
          "internalType": "string",
          "name": "_remark",
          "type": "string"
        }
      ],
      "name": "updateProductStage",
      "outputs": [],
      "stateMutability": "nonpayable",
      "type": "function"
    },
    {
      "inputs": [
        {
          "internalType": "address",
          "name": "_wallet",
          "type": "address"
        },
        {
          "internalType": "enum UserStatus",
          "name": "newStatus",
          "type": "uint8"
        }
      ],
      "name": "updateUserStatus",
      "outputs": [],
      "stateMutability": "nonpayable",
      "type": "function"
    },
    {
      "inputs": [
        {
          "internalType": "address",
          "name": "",
          "type": "address"
        }
      ],
      "name": "userExist",
      "outputs": [
        {
          "internalType": "bool",
          "name": "",
          "type": "bool"
        }
      ],
      "stateMutability": "view",
      "type": "function"
    },
    {
      "inputs": [
        {
          "internalType": "address",
          "name": "",
          "type": "address"
        }
      ],
      "name": "users",
      "outputs": [
        {
          "internalType": "address",
          "name": "wallet",
          "type": "address"
        },
        {
          "internalType": "string",
          "name": "name",
          "type": "string"
        },
        {
          "internalType": "string",
          "name": "place",
          "type": "string"
        },
        {
          "internalType": "enum Role",
          "name": "role",
          "type": "uint8"
        },
        {
          "internalType": "enum UserStatus",
          "name": "status",
          "type": "uint8"
        }
      ],
      "stateMutability": "view",
      "type": "function"
    }
  ],
  "bytecode": "0x6080604052348015600f57600080fd5b50336000806101000a81548173ffffffffffffffffffffffffffffffffffffffff021916908373ffffffffffffffffffffffffffffffffffffffff160217905550615ec18061005f6000396000f3fe608060405234801561001057600080fd5b50600436106100ea5760003560e01c806392b8f0211161008c578063aa6baabd11610066578063aa6baabd1461023b578063ab7e7cf614610257578063b32c4d8d14610287578063c8e9e40d146102b8576100ea565b806392b8f021146101cf578063931f0751146101eb578063a87430ba14610207576100ea565b80635849606d116100c85780635849606d14610145578063659070b9146101635780636813b53b1461017f5780638da5cb5b146101b1576100ea565b80632e17a931146100ef578063309d97fb1461010b5780633367d68b14610129575b600080fd5b61010960048036038101906101049190613f96565b6102d4565b005b6101136106d5565b60405161012091906142b0565b60405180910390f35b610143600480360381019061013e91906142fe565b610b9b565b005b61014d6112cf565b60405161015a9190614604565b60405180910390f35b61017d6004803603810190610178919061464b565b611671565b005b610199600480360381019061019491906146ba565b611c32565b6040516101a89392919061493b565b60405180910390f35b6101b9612496565b6040516101c69190614996565b60405180910390f35b6101e960048036038101906101e491906149b1565b6124ba565b005b61020560048036038101906102009190614a7a565b6127a5565b005b610221600480360381019061021c9190614aba565b612c66565b604051610232959493929190614b4f565b60405180910390f35b61025560048036038101906102509190614bb0565b612de6565b005b610271600480360381019061026c9190614aba565b6132e5565b60405161027e9190614c6a565b60405180910390f35b6102a1600480360381019061029c91906146ba565b613305565b6040516102af929190614c85565b60405180910390f35b6102d260048036038101906102cd9190614cbc565b613439565b005b6005835111610318576040517f08c379a000000000000000000000000000000000000000000000000000000000815260040161030f90614d64565b60405180910390fd5b600c60003373ffffffffffffffffffffffffffffffffffffffff1673ffffffffffffffffffffffffffffffffffffffff16815260200190815260200160002060009054906101000a900460ff16156103a5576040517f08c379a000000000000000000000000000000000000000000000000000000000815260040161039c90614dd0565b60405180910390fd5b60008054906101000a900473ffffffffffffffffffffffffffffffffffffffff1673ffffffffffffffffffffffffffffffffffffffff163373ffffffffffffffffffffffffffffffffffffffff1603610433576040517f08c379a000000000000000000000000000000000000000000000000000000000815260040161042a90614e62565b60405180910390fd5b6040518060a001604052803373ffffffffffffffffffffffffffffffffffffffff168152602001848152602001838152602001826004811115610479576104786140e5565b5b815260200160006004811115610492576104916140e5565b5b815250600460003373ffffffffffffffffffffffffffffffffffffffff1673ffffffffffffffffffffffffffffffffffffffff16815260200190815260200160002060008201518160000160006101000a81548173ffffffffffffffffffffffffffffffffffffffff021916908373ffffffffffffffffffffffffffffffffffffffff1602179055506020820151816001019081610530919061508e565b506040820151816002019081610546919061508e565b5060608201518160030160006101000a81548160ff02191690836004811115610572576105716140e5565b5b021790555060808201518160030160016101000a81548160ff021916908360048111156105a2576105a16140e5565b5b02179055509050506001600c60003373ffffffffffffffffffffffffffffffffffffffff1673ffffffffffffffffffffffffffffffffffffffff16815260200190815260200160002060006101000a81548160ff021916908315150217905550600d339080600181540180825580915050600190039060005260206000200160009091909190916101000a81548173ffffffffffffffffffffffffffffffffffffffff021916908373ffffffffffffffffffffffffffffffffffffffff160217905550600360008154809291906106789061518f565b91905055503373ffffffffffffffffffffffffffffffffffffffff167fc2d513e5848a176ed9c47c262b65bc07cbf0ea47de289a3cef6197427ca56f42848360006040516106c8939291906151d7565b60405180910390a2505050565b6060600c60003373ffffffffffffffffffffffffffffffffffffffff1673ffffffffffffffffffffffffffffffffffffffff16815260200190815260200160002060009054906101000a900460ff16610763576040517f08c379a000000000000000000000000000000000000000000000000000000000815260040161075a90615261565b60405180910390fd5b60026004811115610777576107766140e5565b5b600460003373ffffffffffffffffffffffffffffffffffffffff1673ffffffffffffffffffffffffffffffffffffffff16815260200190815260200160002060030160019054906101000a900460ff1660048111156107d9576107d86140e5565b5b14610819576040517f08c379a0000000000000000000000000000000000000000000000000000000008152600401610810906152cd565b60405180910390fd5b6000600a60003373ffffffffffffffffffffffffffffffffffffffff1673ffffffffffffffffffffffffffffffffffffffff1681526020019081526020016000208054806020026020016040519081016040528092919081815260200182805480156108a457602002820191906000526020600020905b815481526020019060010190808311610890575b5050505050905060008151905060008167ffffffffffffffff8111156108cd576108cc613e46565b5b60405190808252806020026020018201604052801561090657816020015b6108f3613cef565b8152602001906001900390816108eb5790505b50905060005b82811015610b91576006600085838151811061092b5761092a6152ed565b5b602002602001015181526020019081526020016000206040518061010001604052908160008201805461095d90614eb1565b80601f016020809104026020016040519081016040528092919081815260200182805461098990614eb1565b80156109d65780601f106109ab576101008083540402835291602001916109d6565b820191906000526020600020905b8154815290600101906020018083116109b957829003601f168201915b50505050508152602001600182015481526020016002820160009054906101000a900460ff166006811115610a0e57610a0d6140e5565b5b6006811115610a2057610a1f6140e5565b5b8152602001600382018054610a3490614eb1565b80601f0160208091040260200160405190810160405280929190818152602001828054610a6090614eb1565b8015610aad5780601f10610a8257610100808354040283529160200191610aad565b820191906000526020600020905b815481529060010190602001808311610a9057829003601f168201915b50505050508152602001600482018054610ac690614eb1565b80601f0160208091040260200160405190810160405280929190818152602001828054610af290614eb1565b8015610b3f5780601f10610b1457610100808354040283529160200191610b3f565b820191906000526020600020905b815481529060010190602001808311610b2257829003601f168201915b505050505081526020016005820154815260200160068201548152602001600782015481525050828281518110610b7957610b786152ed565b5b6020026020010181905250808060010191505061090c565b5080935050505090565b600c60003373ffffffffffffffffffffffffffffffffffffffff1673ffffffffffffffffffffffffffffffffffffffff16815260200190815260200160002060009054906101000a900460ff16610c27576040517f08c379a0000000000000000000000000000000000000000000000000000000008152600401610c1e90615261565b60405180910390fd5b60026004811115610c3b57610c3a6140e5565b5b600460003373ffffffffffffffffffffffffffffffffffffffff1673ffffffffffffffffffffffffffffffffffffffff16815260200190815260200160002060030160019054906101000a900460ff166004811115610c9d57610c9c6140e5565b5b14610cdd576040517f08c379a0000000000000000000000000000000000000000000000000000000008152600401610cd4906152cd565b60405180910390fd5b60006004811115610cf157610cf06140e5565b5b600460003373ffffffffffffffffffffffffffffffffffffffff1673ffffffffffffffffffffffffffffffffffffffff16815260200190815260200160002060030160009054906101000a900460ff166004811115610d5357610d526140e5565b5b14610d93576040517f08c379a0000000000000000000000000000000000000000000000000000000008152600401610d8a9061538e565b60405180910390fd5b600060025411610dd8576040517f08c379a0000000000000000000000000000000000000000000000000000000008152600401610dcf90615420565b60405180910390fd5b600084118015610dea57506002548411155b610e29576040517f08c379a0000000000000000000000000000000000000000000000000000000008152600401610e209061548c565b60405180910390fd5b428310610e6b576040517f08c379a0000000000000000000000000000000000000000000000000000000008152600401610e629061551e565b60405180910390fd5b828211610ead576040517f08c379a0000000000000000000000000000000000000000000000000000000008152600401610ea4906155b0565b60405180910390fd5b60016000815480929190610ec09061518f565b919050555060405180610100016040528088815260200185815260200160006006811115610ef157610ef06140e5565b5b8152602001878152602001868152602001848152602001838152602001828152506006600060015481526020019081526020016000206000820151816000019081610f3c919061508e565b506020820151816001015560408201518160020160006101000a81548160ff02191690836006811115610f7257610f716140e5565b5b02179055506060820151816003019081610f8c919061508e565b506080820151816004019081610fa2919061508e565b5060a0820151816005015560c0820151816006015560e082015181600701559050506009600085815260200190815260200160002060015490806001815401808255809150506001900390600052602060002001600090919091909150556001600760006001548152602001908152602001600020600082825461102691906155d0565b92505081905550600a60003373ffffffffffffffffffffffffffffffffffffffff1673ffffffffffffffffffffffffffffffffffffffff16815260200190815260200160002060015490806001815401808255809150506001900390600052602060002001600090919091909150556001600b60003373ffffffffffffffffffffffffffffffffffffffff1673ffffffffffffffffffffffffffffffffffffffff1681526020019081526020016000206000600154815260200190815260200160002060006101000a81548160ff0219169083151502179055506040518060c001604052803373ffffffffffffffffffffffffffffffffffffffff1681526020014281526020016000815260200160076000600154815260200190815260200160002054815260200160006006811115611163576111626140e5565b5b81526020016040518060400160405280600d81526020017f4d616e7566616374757265642e00000000000000000000000000000000000000815250815250600860006001548152602001908152602001600020600060076000600154815260200190815260200160002054815260200190815260200160002060008201518160000160006101000a81548173ffffffffffffffffffffffffffffffffffffffff021916908373ffffffffffffffffffffffffffffffffffffffff16021790555060208201518160010155604082015181600201556060820151816003015560808201518160040160006101000a81548160ff0219169083600681111561126c5761126b6140e5565b5b021790555060a0820151816005019081611286919061508e565b509050506001547fcca07c742c5274e8b72111ba69566aa4442450bfc50bd897ea38d0170d1accfc88866040516112be929190615613565b60405180910390a250505050505050565b606060008054906101000a900473ffffffffffffffffffffffffffffffffffffffff1673ffffffffffffffffffffffffffffffffffffffff163373ffffffffffffffffffffffffffffffffffffffff161461135f576040517f08c379a0000000000000000000000000000000000000000000000000000000008152600401611356906156b5565b60405180910390fd5b600060035467ffffffffffffffff81111561137d5761137c613e46565b5b6040519080825280602002602001820160405280156113b657816020015b6113a3613d46565b81526020019060019003908161139b5790505b50905060005b6003548110156116695760046000600d83815481106113de576113dd6152ed565b5b9060005260206000200160009054906101000a900473ffffffffffffffffffffffffffffffffffffffff1673ffffffffffffffffffffffffffffffffffffffff1673ffffffffffffffffffffffffffffffffffffffff1681526020019081526020016000206040518060a00160405290816000820160009054906101000a900473ffffffffffffffffffffffffffffffffffffffff1673ffffffffffffffffffffffffffffffffffffffff1673ffffffffffffffffffffffffffffffffffffffff1681526020016001820180546114b490614eb1565b80601f01602080910402602001604051908101604052809291908181526020018280546114e090614eb1565b801561152d5780601f106115025761010080835404028352916020019161152d565b820191906000526020600020905b81548152906001019060200180831161151057829003601f168201915b5050505050815260200160028201805461154690614eb1565b80601f016020809104026020016040519081016040528092919081815260200182805461157290614eb1565b80156115bf5780601f10611594576101008083540402835291602001916115bf565b820191906000526020600020905b8154815290600101906020018083116115a257829003601f168201915b505050505081526020016003820160009054906101000a900460ff1660048111156115ed576115ec6140e5565b5b60048111156115ff576115fe6140e5565b5b81526020016003820160019054906101000a900460ff166004811115611628576116276140e5565b5b600481111561163a576116396140e5565b5b81525050828281518110611651576116506152ed565b5b602002602001018190525080806001019150506113bc565b508091505090565b600c60003373ffffffffffffffffffffffffffffffffffffffff1673ffffffffffffffffffffffffffffffffffffffff16815260200190815260200160002060009054906101000a900460ff166116fd576040517f08c379a00000000000000000000000000000000000000000000000000000000081526004016116f490615261565b60405180910390fd5b60026004811115611711576117106140e5565b5b600460003373ffffffffffffffffffffffffffffffffffffffff1673ffffffffffffffffffffffffffffffffffffffff16815260200190815260200160002060030160019054906101000a900460ff166004811115611773576117726140e5565b5b146117b3576040517f08c379a00000000000000000000000000000000000000000000000000000000081526004016117aa906152cd565b60405180910390fd5b6006600084815260200190815260200160002060020160009054906101000a900460ff1660068111156117e9576117e86140e5565b5b8260068111156117fc576117fb6140e5565b5b101561183d576040517f08c379a000000000000000000000000000000000000000000000000000000000815260040161183490615721565b60405180910390fd5b6118473383613a26565b611886576040517f08c379a000000000000000000000000000000000000000000000000000000000815260040161187d906157b3565b60405180910390fd5b600b60003373ffffffffffffffffffffffffffffffffffffffff1673ffffffffffffffffffffffffffffffffffffffff168152602001908152602001600020600084815260200190815260200160002060009054906101000a900460ff1615611924576040517f08c379a000000000000000000000000000000000000000000000000000000000815260040161191b90615845565b60405180910390fd5b816006600085815260200190815260200160002060020160006101000a81548160ff0219169083600681111561195d5761195c6140e5565b5b02179055506007600084815260200190815260200160002060008154809291906119869061518f565b9190505550600a60003373ffffffffffffffffffffffffffffffffffffffff1673ffffffffffffffffffffffffffffffffffffffff1681526020019081526020016000208390806001815401808255809150506001900390600052602060002001600090919091909150556001600b60003373ffffffffffffffffffffffffffffffffffffffff1673ffffffffffffffffffffffffffffffffffffffff168152602001908152602001600020600085815260200190815260200160002060006101000a81548160ff0219169083151502179055506040518060c001604052803373ffffffffffffffffffffffffffffffffffffffff1681526020014281526020016000815260200160076000868152602001908152602001600020548152602001836006811115611aba57611ab96140e5565b5b8152602001828152506008600085815260200190815260200160002060006007600087815260200190815260200160002054815260200190815260200160002060008201518160000160006101000a81548173ffffffffffffffffffffffffffffffffffffffff021916908373ffffffffffffffffffffffffffffffffffffffff16021790555060208201518160010155604082015181600201556060820151816003015560808201518160040160006101000a81548160ff02191690836006811115611b8a57611b896140e5565b5b021790555060a0820151816005019081611ba4919061508e565b509050504260086000858152602001908152602001600020600060016007600088815260200190815260200160002054611bde9190615865565b815260200190815260200160002060020181905550827f81d42ac9e3d46884f2be5e2b66b43e389b2a0f31342d07a3f71d2090017851698383604051611c259291906158a8565b60405180910390a2505050565b611c3a613cef565b611c42613daf565b606060006007600086815260200190815260200160002054905060008167ffffffffffffffff811115611c7857611c77613e46565b5b604051908082528060200260200182016040528015611cb157816020015b611c9e613dc9565b815260200190600190039081611c965790505b5090506000600190505b8281116120ef576040518060c0016040528060046000600860008c8152602001908152602001600020600086815260200190815260200160002060000160009054906101000a900473ffffffffffffffffffffffffffffffffffffffff1673ffffffffffffffffffffffffffffffffffffffff1673ffffffffffffffffffffffffffffffffffffffff1681526020019081526020016000206040518060a00160405290816000820160009054906101000a900473ffffffffffffffffffffffffffffffffffffffff1673ffffffffffffffffffffffffffffffffffffffff1673ffffffffffffffffffffffffffffffffffffffff168152602001600182018054611dc490614eb1565b80601f0160208091040260200160405190810160405280929190818152602001828054611df090614eb1565b8015611e3d5780601f10611e1257610100808354040283529160200191611e3d565b820191906000526020600020905b815481529060010190602001808311611e2057829003601f168201915b50505050508152602001600282018054611e5690614eb1565b80601f0160208091040260200160405190810160405280929190818152602001828054611e8290614eb1565b8015611ecf5780601f10611ea457610100808354040283529160200191611ecf565b820191906000526020600020905b815481529060010190602001808311611eb257829003601f168201915b505050505081526020016003820160009054906101000a900460ff166004811115611efd57611efc6140e5565b5b6004811115611f0f57611f0e6140e5565b5b81526020016003820160019054906101000a900460ff166004811115611f3857611f376140e5565b5b6004811115611f4a57611f496140e5565b5b815250508152602001600860008a8152602001908152602001600020600084815260200190815260200160002060040160009054906101000a900460ff166006811115611f9a57611f996140e5565b5b8152602001828152602001600860008a81526020019081526020016000206000848152602001908152602001600020600101548152602001600860008a81526020019081526020016000206000848152602001908152602001600020600201548152602001600860008a81526020019081526020016000206000848152602001908152602001600020600501805461203190614eb1565b80601f016020809104026020016040519081016040528092919081815260200182805461205d90614eb1565b80156120aa5780601f1061207f576101008083540402835291602001916120aa565b820191906000526020600020905b81548152906001019060200180831161208d57829003601f168201915b5050505050815250826001836120c09190615865565b815181106120d1576120d06152ed565b5b602002602001018190525080806120e79061518f565b915050611cbb565b506006600087815260200190815260200160002060056000600660008a815260200190815260200160002060010154815260200190815260200160002082826040518061010001604052908160008201805461214a90614eb1565b80601f016020809104026020016040519081016040528092919081815260200182805461217690614eb1565b80156121c35780601f10612198576101008083540402835291602001916121c3565b820191906000526020600020905b8154815290600101906020018083116121a657829003601f168201915b50505050508152602001600182015481526020016002820160009054906101000a900460ff1660068111156121fb576121fa6140e5565b5b600681111561220d5761220c6140e5565b5b815260200160038201805461222190614eb1565b80601f016020809104026020016040519081016040528092919081815260200182805461224d90614eb1565b801561229a5780601f1061226f5761010080835404028352916020019161229a565b820191906000526020600020905b81548152906001019060200180831161227d57829003601f168201915b505050505081526020016004820180546122b390614eb1565b80601f01602080910402602001604051908101604052809291908181526020018280546122df90614eb1565b801561232c5780601f106123015761010080835404028352916020019161232c565b820191906000526020600020905b81548152906001019060200180831161230f57829003601f168201915b50505050508152602001600582015481526020016006820154815260200160078201548152505092508160405180604001604052908160008201805461237190614eb1565b80601f016020809104026020016040519081016040528092919081815260200182805461239d90614eb1565b80156123ea5780601f106123bf576101008083540402835291602001916123ea565b820191906000526020600020905b8154815290600101906020018083116123cd57829003601f168201915b5050505050815260200160018201805461240390614eb1565b80601f016020809104026020016040519081016040528092919081815260200182805461242f90614eb1565b801561247c5780601f106124515761010080835404028352916020019161247c565b820191906000526020600020905b81548152906001019060200180831161245f57829003601f168201915b505050505081525050915094509450945050509193909250565b60008054906101000a900473ffffffffffffffffffffffffffffffffffffffff1681565b600c60003373ffffffffffffffffffffffffffffffffffffffff1673ffffffffffffffffffffffffffffffffffffffff16815260200190815260200160002060009054906101000a900460ff16612546576040517f08c379a000000000000000000000000000000000000000000000000000000000815260040161253d90615261565b60405180910390fd5b6002600481111561255a576125596140e5565b5b600460003373ffffffffffffffffffffffffffffffffffffffff1673ffffffffffffffffffffffffffffffffffffffff16815260200190815260200160002060030160019054906101000a900460ff1660048111156125bc576125bb6140e5565b5b146125fc576040517f08c379a00000000000000000000000000000000000000000000000000000000081526004016125f3906152cd565b60405180910390fd5b600060048111156126105761260f6140e5565b5b600460003373ffffffffffffffffffffffffffffffffffffffff1673ffffffffffffffffffffffffffffffffffffffff16815260200190815260200160002060030160009054906101000a900460ff166004811115612672576126716140e5565b5b146126b2576040517f08c379a00000000000000000000000000000000000000000000000000000000081526004016126a99061594a565b60405180910390fd5b60058251116126f6576040517f08c379a00000000000000000000000000000000000000000000000000000000081526004016126ed90614d64565b60405180910390fd5b600260008154809291906127099061518f565b9190505550604051806040016040528083815260200182815250600560006002548152602001908152602001600020600082015181600001908161274d919061508e565b506020820151816001019081612763919061508e565b509050506002547f65d0897ef90523e0e840598aac93f29c40c60164ddb22532dfd3a7951575737683604051612799919061596a565b60405180910390a25050565b60008054906101000a900473ffffffffffffffffffffffffffffffffffffffff1673ffffffffffffffffffffffffffffffffffffffff163373ffffffffffffffffffffffffffffffffffffffff1614612833576040517f08c379a000000000000000000000000000000000000000000000000000000000815260040161282a906156b5565b60405180910390fd5b600073ffffffffffffffffffffffffffffffffffffffff168273ffffffffffffffffffffffffffffffffffffffff16036128a2576040517f08c379a0000000000000000000000000000000000000000000000000000000008152600401612899906159d8565b60405180910390fd5b6000600460008473ffffffffffffffffffffffffffffffffffffffff1673ffffffffffffffffffffffffffffffffffffffff16815260200190815260200160002060030160019054906101000a900460ff169050816004811115612909576129086140e5565b5b81600481111561291c5761291b6140e5565b5b0361295c576040517f08c379a000000000000000000000000000000000000000000000000000000000815260040161295390615a6a565b60405180910390fd5b60048081111561296f5761296e6140e5565b5b826004811115612982576129816140e5565b5b036129f3576002600481111561299b5761299a6140e5565b5b8160048111156129ae576129ad6140e5565b5b146129ee576040517f08c379a00000000000000000000000000000000000000000000000000000000081526004016129e590615afc565b60405180910390fd5b612ba7565b60016004811115612a0757612a066140e5565b5b826004811115612a1a57612a196140e5565b5b03612ae35760006004811115612a3357612a326140e5565b5b816004811115612a4657612a456140e5565b5b14612a86576040517f08c379a0000000000000000000000000000000000000000000000000000000008152600401612a7d90615b8e565b60405180910390fd5b6000600c60008573ffffffffffffffffffffffffffffffffffffffff1673ffffffffffffffffffffffffffffffffffffffff16815260200190815260200160002060006101000a81548160ff021916908315150217905550612ba6565b60026004811115612af757612af66140e5565b5b826004811115612b0a57612b096140e5565b5b03612ba55760006004811115612b2357612b226140e5565b5b816004811115612b3657612b356140e5565b5b1480612b655750600480811115612b5057612b4f6140e5565b5b816004811115612b6357612b626140e5565b5b145b612ba4576040517f08c379a0000000000000000000000000000000000000000000000000000000008152600401612b9b90615c20565b60405180910390fd5b5b5b5b81600460008573ffffffffffffffffffffffffffffffffffffffff1673ffffffffffffffffffffffffffffffffffffffff16815260200190815260200160002060030160016101000a81548160ff02191690836004811115612c0c57612c0b6140e5565b5b02179055508273ffffffffffffffffffffffffffffffffffffffff167f975ac4961d0adbdc3da20d9f9993760d66928d93dfa2dee4bb79815b266530e28284604051612c59929190615c40565b60405180910390a2505050565b60046020528060005260406000206000915090508060000160009054906101000a900473ffffffffffffffffffffffffffffffffffffffff1690806001018054612caf90614eb1565b80601f0160208091040260200160405190810160405280929190818152602001828054612cdb90614eb1565b8015612d285780601f10612cfd57610100808354040283529160200191612d28565b820191906000526020600020905b815481529060010190602001808311612d0b57829003601f168201915b505050505090806002018054612d3d90614eb1565b80601f0160208091040260200160405190810160405280929190818152602001828054612d6990614eb1565b8015612db65780601f10612d8b57610100808354040283529160200191612db6565b820191906000526020600020905b815481529060010190602001808311612d9957829003601f168201915b5050505050908060030160009054906101000a900460ff16908060030160019054906101000a900460ff16905085565b60008054906101000a900473ffffffffffffffffffffffffffffffffffffffff1673ffffffffffffffffffffffffffffffffffffffff163373ffffffffffffffffffffffffffffffffffffffff1614612e74576040517f08c379a0000000000000000000000000000000000000000000000000000000008152600401612e6b906156b5565b60405180910390fd5b600073ffffffffffffffffffffffffffffffffffffffff168473ffffffffffffffffffffffffffffffffffffffff1603612ee3576040517f08c379a0000000000000000000000000000000000000000000000000000000008152600401612eda906159d8565b60405180910390fd5b6005835111612f27576040517f08c379a0000000000000000000000000000000000000000000000000000000008152600401612f1e90614d64565b60405180910390fd5b600c60008573ffffffffffffffffffffffffffffffffffffffff1673ffffffffffffffffffffffffffffffffffffffff16815260200190815260200160002060009054906101000a900460ff1615612fb4576040517f08c379a0000000000000000000000000000000000000000000000000000000008152600401612fab90614dd0565b60405180910390fd5b60008054906101000a900473ffffffffffffffffffffffffffffffffffffffff1673ffffffffffffffffffffffffffffffffffffffff168473ffffffffffffffffffffffffffffffffffffffff1603613042576040517f08c379a000000000000000000000000000000000000000000000000000000000815260040161303990614e62565b60405180910390fd5b6040518060a001604052808573ffffffffffffffffffffffffffffffffffffffff168152602001848152602001838152602001826004811115613088576130876140e5565b5b8152602001600260048111156130a1576130a06140e5565b5b815250600460008673ffffffffffffffffffffffffffffffffffffffff1673ffffffffffffffffffffffffffffffffffffffff16815260200190815260200160002060008201518160000160006101000a81548173ffffffffffffffffffffffffffffffffffffffff021916908373ffffffffffffffffffffffffffffffffffffffff160217905550602082015181600101908161313f919061508e565b506040820151816002019081613155919061508e565b5060608201518160030160006101000a81548160ff02191690836004811115613181576131806140e5565b5b021790555060808201518160030160016101000a81548160ff021916908360048111156131b1576131b06140e5565b5b02179055509050506001600c60008673ffffffffffffffffffffffffffffffffffffffff1673ffffffffffffffffffffffffffffffffffffffff16815260200190815260200160002060006101000a81548160ff021916908315150217905550600d849080600181540180825580915050600190039060005260206000200160009091909190916101000a81548173ffffffffffffffffffffffffffffffffffffffff021916908373ffffffffffffffffffffffffffffffffffffffff160217905550600360008154809291906132879061518f565b91905055508373ffffffffffffffffffffffffffffffffffffffff167fc2d513e5848a176ed9c47c262b65bc07cbf0ea47de289a3cef6197427ca56f42848360026040516132d7939291906151d7565b60405180910390a250505050565b600c6020528060005260406000206000915054906101000a900460ff1681565b600560205280600052604060002060009150905080600001805461332890614eb1565b80601f016020809104026020016040519081016040528092919081815260200182805461335490614eb1565b80156133a15780601f10613376576101008083540402835291602001916133a1565b820191906000526020600020905b81548152906001019060200180831161338457829003601f168201915b5050505050908060010180546133b690614eb1565b80601f01602080910402602001604051908101604052809291908181526020018280546133e290614eb1565b801561342f5780601f106134045761010080835404028352916020019161342f565b820191906000526020600020905b81548152906001019060200180831161341257829003601f168201915b5050505050905082565b8160008111801561344c57506001548111155b61348b576040517f08c379a000000000000000000000000000000000000000000000000000000000815260040161348290615cb5565b60405180910390fd5b600c60003373ffffffffffffffffffffffffffffffffffffffff1673ffffffffffffffffffffffffffffffffffffffff16815260200190815260200160002060009054906101000a900460ff16613517576040517f08c379a000000000000000000000000000000000000000000000000000000000815260040161350e90615261565b60405180910390fd5b6002600481111561352b5761352a6140e5565b5b600460003373ffffffffffffffffffffffffffffffffffffffff1673ffffffffffffffffffffffffffffffffffffffff16815260200190815260200160002060030160019054906101000a900460ff16600481111561358d5761358c6140e5565b5b146135cd576040517f08c379a00000000000000000000000000000000000000000000000000000000081526004016135c4906152cd565b60405180910390fd5b6006808111156135e0576135df6140e5565b5b6006600085815260200190815260200160002060020160009054906101000a900460ff166006811115613616576136156140e5565b5b03613656576040517f08c379a000000000000000000000000000000000000000000000000000000000815260040161364d90615d47565b60405180910390fd5b3373ffffffffffffffffffffffffffffffffffffffff166008600085815260200190815260200160002060006007600087815260200190815260200160002054815260200190815260200160002060000160009054906101000a900473ffffffffffffffffffffffffffffffffffffffff1673ffffffffffffffffffffffffffffffffffffffff161461371e576040517f08c379a000000000000000000000000000000000000000000000000000000000815260040161371590615dd9565b60405180910390fd5b6000825111613762576040517f08c379a000000000000000000000000000000000000000000000000000000000815260040161375990615e6b565b60405180910390fd5b600680600085815260200190815260200160002060020160006101000a81548160ff0219169083600681111561379b5761379a6140e5565b5b02179055506007600084815260200190815260200160002060008154809291906137c49061518f565b9190505550600a60003373ffffffffffffffffffffffffffffffffffffffff1673ffffffffffffffffffffffffffffffffffffffff1681526020019081526020016000208390806001815401808255809150506001900390600052602060002001600090919091909150556001600b60003373ffffffffffffffffffffffffffffffffffffffff1673ffffffffffffffffffffffffffffffffffffffff168152602001908152602001600020600085815260200190815260200160002060006101000a81548160ff0219169083151502179055506040518060c001604052803373ffffffffffffffffffffffffffffffffffffffff16815260200142815260200160008152602001600760008681526020019081526020016000205481526020016006808111156138f8576138f76140e5565b5b8152602001838152506008600085815260200190815260200160002060006007600087815260200190815260200160002054815260200190815260200160002060008201518160000160006101000a81548173ffffffffffffffffffffffffffffffffffffffff021916908373ffffffffffffffffffffffffffffffffffffffff16021790555060208201518160010155604082015181600201556060820151816003015560808201518160040160006101000a81548160ff021916908360068111156139c8576139c76140e5565b5b021790555060a08201518160050190816139e2919061508e565b50905050827f81d42ac9e3d46884f2be5e2b66b43e389b2a0f31342d07a3f71d209001785169600684604051613a199291906158a8565b60405180910390a2505050565b600080600460008573ffffffffffffffffffffffffffffffffffffffff1673ffffffffffffffffffffffffffffffffffffffff16815260200190815260200160002060030160009054906101000a900460ff16905060006006811115613a8f57613a8e6140e5565b5b836006811115613aa257613aa16140e5565b5b148015613ad3575060006004811115613abe57613abd6140e5565b5b816004811115613ad157613ad06140e5565b5b145b15613ae2576001915050613ce9565b60016006811115613af657613af56140e5565b5b836006811115613b0957613b086140e5565b5b148015613b3a575060016004811115613b2557613b246140e5565b5b816004811115613b3857613b376140e5565b5b145b15613b49576001915050613ce9565b60026006811115613b5d57613b5c6140e5565b5b836006811115613b7057613b6f6140e5565b5b148015613ba1575060026004811115613b8c57613b8b6140e5565b5b816004811115613b9f57613b9e6140e5565b5b145b15613bb0576001915050613ce9565b60036006811115613bc457613bc36140e5565b5b836006811115613bd757613bd66140e5565b5b148015613c08575060036004811115613bf357613bf26140e5565b5b816004811115613c0657613c056140e5565b5b145b15613c17576001915050613ce9565b60046006811115613c2b57613c2a6140e5565b5b836006811115613c3e57613c3d6140e5565b5b148015613c6e5750600480811115613c5957613c586140e5565b5b816004811115613c6c57613c6b6140e5565b5b145b15613c7d576001915050613ce9565b60056006811115613c9157613c906140e5565b5b836006811115613ca457613ca36140e5565b5b148015613cd45750600480811115613cbf57613cbe6140e5565b5b816004811115613cd257613cd16140e5565b5b145b15613ce3576001915050613ce9565b60009150505b92915050565b604051806101000160405280606081526020016000815260200160006006811115613d1d57613d1c6140e5565b5b815260200160608152602001606081526020016000815260200160008152602001600081525090565b6040518060a00160405280600073ffffffffffffffffffffffffffffffffffffffff168152602001606081526020016060815260200160006004811115613d9057613d8f6140e5565b5b815260200160006004811115613da957613da86140e5565b5b81525090565b604051806040016040528060608152602001606081525090565b6040518060c00160405280613ddc613d46565b815260200160006006811115613df557613df46140e5565b5b8152602001600081526020016000815260200160008152602001606081525090565b6000604051905090565b600080fd5b600080fd5b600080fd5b600080fd5b6000601f19601f8301169050919050565b7f4e487b7100000000000000000000000000000000000000000000000000000000600052604160045260246000fd5b613e7e82613e35565b810181811067ffffffffffffffff82111715613e9d57613e9c613e46565b5b80604052505050565b6000613eb0613e17565b9050613ebc8282613e75565b919050565b600067ffffffffffffffff821115613edc57613edb613e46565b5b613ee582613e35565b9050602081019050919050565b82818337600083830152505050565b6000613f14613f0f84613ec1565b613ea6565b905082815260208101848484011115613f3057613f2f613e30565b5b613f3b848285613ef2565b509392505050565b600082601f830112613f5857613f57613e2b565b5b8135613f68848260208601613f01565b91505092915050565b60058110613f7e57600080fd5b50565b600081359050613f9081613f71565b92915050565b600080600060608486031215613faf57613fae613e21565b5b600084013567ffffffffffffffff811115613fcd57613fcc613e26565b5b613fd986828701613f43565b935050602084013567ffffffffffffffff811115613ffa57613ff9613e26565b5b61400686828701613f43565b925050604061401786828701613f81565b9150509250925092565b600081519050919050565b600082825260208201905092915050565b6000819050602082019050919050565b600081519050919050565b600082825260208201905092915050565b60005b8381101561408757808201518184015260208101905061406c565b60008484015250505050565b600061409e8261404d565b6140a88185614058565b93506140b8818560208601614069565b6140c181613e35565b840191505092915050565b6000819050919050565b6140df816140cc565b82525050565b7f4e487b7100000000000000000000000000000000000000000000000000000000600052602160045260246000fd5b60078110614125576141246140e5565b5b50565b600081905061413682614114565b919050565b600061414682614128565b9050919050565b6141568161413b565b82525050565b600061010083016000830151848203600086015261417a8282614093565b915050602083015161418f60208601826140d6565b5060408301516141a2604086018261414d565b50606083015184820360608601526141ba8282614093565b915050608083015184820360808601526141d48282614093565b91505060a08301516141e960a08601826140d6565b5060c08301516141fc60c08601826140d6565b5060e083015161420f60e08601826140d6565b508091505092915050565b6000614226838361415c565b905092915050565b6000602082019050919050565b600061424682614021565b614250818561402c565b9350836020820285016142628561403d565b8060005b8581101561429e578484038952815161427f858261421a565b945061428a8361422e565b925060208a01995050600181019050614266565b50829750879550505050505092915050565b600060208201905081810360008301526142ca818461423b565b905092915050565b6142db816140cc565b81146142e657600080fd5b50565b6000813590506142f8816142d2565b92915050565b600080600080600080600060e0888a03121561431d5761431c613e21565b5b600088013567ffffffffffffffff81111561433b5761433a613e26565b5b6143478a828b01613f43565b975050602088013567ffffffffffffffff81111561436857614367613e26565b5b6143748a828b01613f43565b965050604088013567ffffffffffffffff81111561439557614394613e26565b5b6143a18a828b01613f43565b95505060606143b28a828b016142e9565b94505060806143c38a828b016142e9565b93505060a06143d48a828b016142e9565b92505060c06143e58a828b016142e9565b91505092959891949750929550565b600081519050919050565b600082825260208201905092915050565b6000819050602082019050919050565b600073ffffffffffffffffffffffffffffffffffffffff82169050919050565b600061444b82614420565b9050919050565b61445b81614440565b82525050565b60058110614472576144716140e5565b5b50565b600081905061448382614461565b919050565b600061449382614475565b9050919050565b6144a381614488565b82525050565b600581106144ba576144b96140e5565b5b50565b60008190506144cb826144a9565b919050565b60006144db826144bd565b9050919050565b6144eb816144d0565b82525050565b600060a0830160008301516145096000860182614452565b50602083015184820360208601526145218282614093565b9150506040830151848203604086015261453b8282614093565b9150506060830151614550606086018261449a565b50608083015161456360808601826144e2565b508091505092915050565b600061457a83836144f1565b905092915050565b6000602082019050919050565b600061459a826143f4565b6145a481856143ff565b9350836020820285016145b685614410565b8060005b858110156145f257848403895281516145d3858261456e565b94506145de83614582565b925060208a019950506001810190506145ba565b50829750879550505050505092915050565b6000602082019050818103600083015261461e818461458f565b905092915050565b6007811061463357600080fd5b50565b60008135905061464581614626565b92915050565b60008060006060848603121561466457614663613e21565b5b6000614672868287016142e9565b935050602061468386828701614636565b925050604084013567ffffffffffffffff8111156146a4576146a3613e26565b5b6146b086828701613f43565b9150509250925092565b6000602082840312156146d0576146cf613e21565b5b60006146de848285016142e9565b91505092915050565b60006101008301600083015184820360008601526147058282614093565b915050602083015161471a60208601826140d6565b50604083015161472d604086018261414d565b50606083015184820360608601526147458282614093565b9150506080830151848203608086015261475f8282614093565b91505060a083015161477460a08601826140d6565b5060c083015161478760c08601826140d6565b5060e083015161479a60e08601826140d6565b508091505092915050565b600060408301600083015184820360008601526147c28282614093565b915050602083015184820360208601526147dc8282614093565b9150508091505092915050565b600081519050919050565b600082825260208201905092915050565b6000819050602082019050919050565b600060c083016000830151848203600086015261483282826144f1565b9150506020830151614847602086018261414d565b50604083015161485a60408601826140d6565b50606083015161486d60608601826140d6565b50608083015161488060808601826140d6565b5060a083015184820360a08601526148988282614093565b9150508091505092915050565b60006148b18383614815565b905092915050565b6000602082019050919050565b60006148d1826147e9565b6148db81856147f4565b9350836020820285016148ed85614805565b8060005b85811015614929578484038952815161490a85826148a5565b9450614915836148b9565b925060208a019950506001810190506148f1565b50829750879550505050505092915050565b6000606082019050818103600083015261495581866146e7565b9050818103602083015261496981856147a5565b9050818103604083015261497d81846148c6565b9050949350505050565b61499081614440565b82525050565b60006020820190506149ab6000830184614987565b92915050565b600080604083850312156149c8576149c7613e21565b5b600083013567ffffffffffffffff8111156149e6576149e5613e26565b5b6149f285828601613f43565b925050602083013567ffffffffffffffff811115614a1357614a12613e26565b5b614a1f85828601613f43565b9150509250929050565b614a3281614440565b8114614a3d57600080fd5b50565b600081359050614a4f81614a29565b92915050565b60058110614a6257600080fd5b50565b600081359050614a7481614a55565b92915050565b60008060408385031215614a9157614a90613e21565b5b6000614a9f85828601614a40565b9250506020614ab085828601614a65565b9150509250929050565b600060208284031215614ad057614acf613e21565b5b6000614ade84828501614a40565b91505092915050565b600082825260208201905092915050565b6000614b038261404d565b614b0d8185614ae7565b9350614b1d818560208601614069565b614b2681613e35565b840191505092915050565b614b3a81614488565b82525050565b614b49816144d0565b82525050565b600060a082019050614b646000830188614987565b8181036020830152614b768187614af8565b90508181036040830152614b8a8186614af8565b9050614b996060830185614b31565b614ba66080830184614b40565b9695505050505050565b60008060008060808587031215614bca57614bc9613e21565b5b6000614bd887828801614a40565b945050602085013567ffffffffffffffff811115614bf957614bf8613e26565b5b614c0587828801613f43565b935050604085013567ffffffffffffffff811115614c2657614c25613e26565b5b614c3287828801613f43565b9250506060614c4387828801613f81565b91505092959194509250565b60008115159050919050565b614c6481614c4f565b82525050565b6000602082019050614c7f6000830184614c5b565b92915050565b60006040820190508181036000830152614c9f8185614af8565b90508181036020830152614cb38184614af8565b90509392505050565b60008060408385031215614cd357614cd2613e21565b5b6000614ce1858286016142e9565b925050602083013567ffffffffffffffff811115614d0257614d01613e26565b5b614d0e85828601613f43565b9150509250929050565b7f50726f706572206e616d652069732072657175697265642e0000000000000000600082015250565b6000614d4e601883614ae7565b9150614d5982614d18565b602082019050919050565b60006020820190508181036000830152614d7d81614d41565b9050919050565b7f5573657220616c7265616479206578697374732e000000000000000000000000600082015250565b6000614dba601483614ae7565b9150614dc582614d84565b602082019050919050565b60006020820190508181036000830152614de981614dad565b9050919050565b7f4f776e65722063616e206e6f742062652072656769737465726564206173207560008201527f7365722e00000000000000000000000000000000000000000000000000000000602082015250565b6000614e4c602483614ae7565b9150614e5782614df0565b604082019050919050565b60006020820190508181036000830152614e7b81614e3f565b9050919050565b7f4e487b7100000000000000000000000000000000000000000000000000000000600052602260045260246000fd5b60006002820490506001821680614ec957607f821691505b602082108103614edc57614edb614e82565b5b50919050565b60008190508160005260206000209050919050565b60006020601f8301049050919050565b600082821b905092915050565b600060088302614f447fffffffffffffffffffffffffffffffffffffffffffffffffffffffffffffffff82614f07565b614f4e8683614f07565b95508019841693508086168417925050509392505050565b6000819050919050565b6000614f8b614f86614f81846140cc565b614f66565b6140cc565b9050919050565b6000819050919050565b614fa583614f70565b614fb9614fb182614f92565b848454614f14565b825550505050565b600090565b614fce614fc1565b614fd9818484614f9c565b505050565b5b81811015614ffd57614ff2600082614fc6565b600181019050614fdf565b5050565b601f8211156150425761501381614ee2565b61501c84614ef7565b8101602085101561502b578190505b61503f61503785614ef7565b830182614fde565b50505b505050565b600082821c905092915050565b600061506560001984600802615047565b1980831691505092915050565b600061507e8383615054565b9150826002028217905092915050565b6150978261404d565b67ffffffffffffffff8111156150b0576150af613e46565b5b6150ba8254614eb1565b6150c5828285615001565b600060209050601f8311600181146150f857600084156150e6578287015190505b6150f08582615072565b865550615158565b601f19841661510686614ee2565b60005b8281101561512e57848901518255600182019150602085019450602081019050615109565b8683101561514b5784890151615147601f891682615054565b8355505b6001600288020188555050505b505050505050565b7f4e487b7100000000000000000000000000000000000000000000000000000000600052601160045260246000fd5b600061519a826140cc565b91507fffffffffffffffffffffffffffffffffffffffffffffffffffffffffffffffff82036151cc576151cb615160565b5b600182019050919050565b600060608201905081810360008301526151f18186614af8565b90506152006020830185614b31565b61520d6040830184614b40565b949350505050565b7f5573657220646f65736e6f742065786973742e00000000000000000000000000600082015250565b600061524b601383614ae7565b915061525682615215565b602082019050919050565b6000602082019050818103600083015261527a8161523e565b9050919050565b7f55736572206973206e6f74206f6e204163746976652053746174652e00000000600082015250565b60006152b7601c83614ae7565b91506152c282615281565b602082019050919050565b600060208201905081810360008301526152e6816152aa565b9050919050565b7f4e487b7100000000000000000000000000000000000000000000000000000000600052603260045260246000fd5b7f556e617574686f72697a656420726f6c6520666f72206164642070726f64756360008201527f742e000000000000000000000000000000000000000000000000000000000000602082015250565b6000615378602283614ae7565b91506153838261531c565b604082019050919050565b600060208201905081810360008301526153a78161536b565b9050919050565b7f4e6f206261746368206578697374732e2043726561746520612062617463682060008201527f66697273742e0000000000000000000000000000000000000000000000000000602082015250565b600061540a602683614ae7565b9150615415826153ae565b604082019050919050565b60006020820190508181036000830152615439816153fd565b9050919050565b7f496e76616c6964204261746368204e756d6265722e0000000000000000000000600082015250565b6000615476601583614ae7565b915061548182615440565b602082019050919050565b600060208201905081810360008301526154a581615469565b9050919050565b7f4d616e75666163747572652064617465206d75737420626520696e207468652060008201527f706173742e000000000000000000000000000000000000000000000000000000602082015250565b6000615508602583614ae7565b9150615513826154ac565b604082019050919050565b60006020820190508181036000830152615537816154fb565b9050919050565b7f4578706972792064617465206d757374206265206166746572206d616e75666160008201527f637475726520646174652e000000000000000000000000000000000000000000602082015250565b600061559a602b83614ae7565b91506155a58261553e565b604082019050919050565b600060208201905081810360008301526155c98161558d565b9050919050565b60006155db826140cc565b91506155e6836140cc565b92508282019050808211156155fe576155fd615160565b5b92915050565b61560d816140cc565b82525050565b6000604082019050818103600083015261562d8185614af8565b905061563c6020830184615604565b9392505050565b7f4f6e6c79206f776e65722063616e20706572666f726d2074686973206163746960008201527f6f6e2e0000000000000000000000000000000000000000000000000000000000602082015250565b600061569f602383614ae7565b91506156aa82615643565b604082019050919050565b600060208201905081810360008301526156ce81615692565b9050919050565b7f496e76616c6964207374616765207472616e736974696f6e2e00000000000000600082015250565b600061570b601983614ae7565b9150615716826156d5565b602082019050919050565b6000602082019050818103600083015261573a816156fe565b9050919050565b7f556e617574686f72697a656420726f6c6520666f72207468697320737461676560008201527f2e00000000000000000000000000000000000000000000000000000000000000602082015250565b600061579d602183614ae7565b91506157a882615741565b604082019050919050565b600060208201905081810360008301526157cc81615790565b9050919050565b7f596f75206861766520616c72656164792075706461746520746869732070726f60008201527f647563742e000000000000000000000000000000000000000000000000000000602082015250565b600061582f602583614ae7565b915061583a826157d3565b604082019050919050565b6000602082019050818103600083015261585e81615822565b9050919050565b6000615870826140cc565b915061587b836140cc565b925082820390508181111561589357615892615160565b5b92915050565b6158a28161413b565b82525050565b60006040820190506158bd6000830185615899565b81810360208301526158cf8184614af8565b90509392505050565b7f556e617574686f72697a656420726f6c6520666f72206372656174652062617460008201527f63682e0000000000000000000000000000000000000000000000000000000000602082015250565b6000615934602383614ae7565b915061593f826158d8565b604082019050919050565b6000602082019050818103600083015261596381615927565b9050919050565b600060208201905081810360008301526159848184614af8565b905092915050565b7f496e76616c696420616464726573732e00000000000000000000000000000000600082015250565b60006159c2601083614ae7565b91506159cd8261598c565b602082019050919050565b600060208201905081810360008301526159f1816159b5565b9050919050565b7f5573657220697320616c726561647920696e207468652064657369726564207360008201527f746174652e000000000000000000000000000000000000000000000000000000602082015250565b6000615a54602583614ae7565b9150615a5f826159f8565b604082019050919050565b60006020820190508181036000830152615a8381615a47565b9050919050565b7f55736572206d7573742062652041637469766520746f2062652044656163746960008201527f76617465642e0000000000000000000000000000000000000000000000000000602082015250565b6000615ae6602683614ae7565b9150615af182615a8a565b604082019050919050565b60006020820190508181036000830152615b1581615ad9565b9050919050565b7f55736572206d7573742062652050656e64696e6720746f2062652052656a656360008201527f7465642e00000000000000000000000000000000000000000000000000000000602082015250565b6000615b78602483614ae7565b9150615b8382615b1c565b604082019050919050565b60006020820190508181036000830152615ba781615b6b565b9050919050565b7f55736572206d7573742062652050656e64696e67206f7220446561637469766160008201527f74656420746f206265204163746976617465642e000000000000000000000000602082015250565b6000615c0a603483614ae7565b9150615c1582615bae565b604082019050919050565b60006020820190508181036000830152615c3981615bfd565b9050919050565b6000604082019050615c556000830185614b40565b615c626020830184614b40565b9392505050565b7f496e76616c69642050726f647563742049642e00000000000000000000000000600082015250565b6000615c9f601383614ae7565b9150615caa82615c69565b602082019050919050565b60006020820190508181036000830152615cce81615c92565b9050919050565b7f50726f6475637420697320616c7265616479206d61726b6564206173206c6f7360008201527f742e000000000000000000000000000000000000000000000000000000000000602082015250565b6000615d31602283614ae7565b9150615d3c82615cd5565b604082019050919050565b60006020820190508181036000830152615d6081615d24565b9050919050565b7f596f7520617265206e6f7420617574686f72697a656420746f206d61726b207060008201527f726f64756374206173204c6f73742e0000000000000000000000000000000000602082015250565b6000615dc3602f83614ae7565b9150615dce82615d67565b604082019050919050565b60006020820190508181036000830152615df281615db6565b9050919050565b7f52656d61726b20697320726571756972656420746f206d61726b206173206c6f60008201527f73742e0000000000000000000000000000000000000000000000000000000000602082015250565b6000615e55602383614ae7565b9150615e6082615df9565b604082019050919050565b60006020820190508181036000830152615e8481615e48565b905091905056fea2646970667358221220c9a279cb768f6112393abc02c17f45acd080d8a9a83d31d133284e008f3a50ed64736f6c634300081c0033",
  "linkReferences": {},
  "deployedLinkReferences": {}
}